:100000000C94F6000C9427010C9427010C94270102
:100010000C9427010C9427010C9427010C942701C0
:100020000C9427010C9427010C9427010C942701B0
:100030000C9427010C9427010C9427010C942701A0
:100040000C9427010C9427010C9427010C94270190
:100050000C9427010C9427010C9427010C940C0498
:100060000C9427010C9427010C9427010C94270170
:100070000C9427010C9427010C9427010C94270160
:100080000C9427010C9427010C9427010C94270150
:100090000C9427010C9427010C9427010C94D8028E
:1000A0000C9427010C9427010C9427010C94270130
:1000B0000C9427010C9427010C9427010C94270120
:1000C0000C9427010C9427010C9427010C94270110
:1000D0000C9427010C9427010C9427010C94270100
:1000E0000C9427010000090A02080B0C0D070603F7
:1000F00004010000000000000000000000000000FB
:1001000000000000000000000000000000000000EF
:1001100011100F00000000000000000000000000AF
:100120000000000000000000000001021020200874
:100130000810204010204080020102010804020142
:1001400001020408102040808040201008040201B1
:10015000800402018040201008040201080402010A
:100160000102040810204080010204081020408091
:1001700005050505070508080808020202020A0A23
:100180000808040404040101010101010101030341
:10019000030303030303040707070C0C0C0C0C0CEC
:1001A0000C0C0202020206060606060606060B0BE9
:1001B0000B0B0B0B0B0B00002200250028002B0063
:1001C0002E003100340002010000050108010B017E
:1001D00000002100240027002A002D0030003300F9
:1001E00001010000040107010A017F0211241FBE62
:1001F000CFEFD1E2DEBFCDBF00E00CBF12E0A0E048
:10020000B2E0ECEEFBE000E00BBF02C007900D9205
:10021000A031B107D9F712E0A0E1B2E001C01D9210
:10022000A03EB107E1F711E0CCEED1E000E006C05E
:1002300022970109FE010BBF0E94F005CA3ED107BB
:1002400080E00807A9F70E94E3050C94F4050C94DC
:100250000000E0911402F09115020190F081E02D70
:100260006091120284E192E019940F931F93CF934F
:10027000DF930AE210E084E192E00E948B01892B77
:1002800049F184E192E00E949401EC019093130201
:100290008093120281309105C1F4809110029091F7
:1002A0001102892B49F461E08DE00E94AC05D093E6
:1002B0001102C0931002DFCF60E08DE00E94AC0518
:1002C0001092110210921002D6CF109313020093D5
:1002D0001202D1CFDF91CF911F910F91089561E06C
:1002E0008DE00E94740564E070E084E192E00E9479
:1002F000730265E371E084E192E00E94750269E2B5
:1003000071E084E192E00C947A026AE070E080E0AF
:1003100090E00C9480042091470230E080914802E4
:10032000281B3109C9010895809148029091470224
:10033000891750F4E82FF0E0E75BFD4F208130E0B3
:100340008F5F8093480202C02FEF3FEFC9010895ED
:10035000E091480280914702E81730F4F0E0E75B53
:10036000FD4F208130E002C02FEF3FEFC90108951B
:100370000895E0912002F09121023097E1F0309150
:100380004802209147023217B0F040E009C0DC017A
:10039000A20FB31F5C91D901A75BBD4F5C934F5F68
:1003A000242F30E02617370794F310924802609309
:1003B0004702CB0119940895E0912202F0912302A3
:1003C000309729F010922602109225021994089570
:1003D000CF92DF92EF92FF920F931F93CF93DF9311
:1003E0007C01CB018A0120912402222391F0EB01B0
:1003F0006B01C40ED51E09C06991D701ED91FC9126
:100400000190F081E02DC7011995CC15DD05A1F70C
:1004100003C0642F0E94A502C801DF91CF911F91F4
:100420000F91FF90EF90DF90CF900895CF93DF93DF
:100430001F92CDB7DEB76983209124022223D1F029
:1004400020912502203240F021E030E0FC0133838E
:10045000228320E030E015C080912602E82FF0E0F2
:10046000E95DFD4F998190838F5F80932602809391
:10047000250205C061E0CE0101960E94A50221E09F
:1004800030E0C9010F90DF91CF910895FC011382F4
:10049000128248EE53E060E070E044835583668347
:1004A000778384E092E091838083089510924802DC
:1004B0001092470210922602109225020C94830299
:1004C000CF93DF93EC01862F0E94A1028CED91E087
:1004D0000E94C30289EB91E00E94BE02CE01DF912F
:1004E000CF910C9456020C94600270932102609399
:1004F000200208957093230260932202089584E1FC
:1005000092E00C9446021092720281E08093700295
:1005100010926F0261E084E10E94AC0561E085E128
:100520000E94AC05E9EBF0E080818E7F80838081C2
:100530008D7F808388E48093B80085E48093BC003D
:100540000895880F8093BA000895613298F420913D
:100550007202243089F460936B02FC0183E992E01B
:10056000DC0102C021912D932A2F281B2617D0F3DE
:1005700080E0089581E0089582E008959093B402A8
:100580008093B30208959093B6028093B5020895C4
:1005900085ED8093BC008091BC0084FDFCCF10925F
:1005A0007202089585EC8093BC0010927202089547
:1005B0001F920F920FB60F9211240BB60F922F932A
:1005C0003F934F935F936F937F938F939F93AF93DB
:1005D000BF93EF93FF938091B900887F803609F431
:1005E0009FC058F5883209F45BC090F4803109F45B
:1005F00052C038F4882309F4F8C0883009F0F9C0F3
:100600004AC0883109F44CC0803209F0F2C05CC0A5
:10061000803409F46BC038F4803309F455C0883352
:1006200009F0E7C054C0803509F454C0883509F496
:1006300062C0883409F0DDC0DAC0883909F4CBC063
:10064000A8F4883709F46CC038F4883609F468C017
:10065000803709F0CEC064C0883809F4BCC0803946
:1006600009F464C0803809F0C4C060C0803B09F45C
:100670008AC038F4803A09F46BC0883A09F0B9C0EE
:1006800082C0803C09F4ABC0883C09F4A8C0883B18
:1006900009F0AFC08DC0809171028093BB0012C081
:1006A00090916E0280916D02981788F580916E028C
:1006B000E82FF0E0ED58FD4F90819093BB008F5FE5
:1006C00080936E0285EC88C08093690290C080930D
:1006D000690256C080916E029091BB00E82FF0E055
:1006E000ED58FD4F90838F5F80936E0290916E0264
:1006F00080916D026DC080916E029091BB00E82FD9
:10070000F0E0ED58FD4F90838F5F80936E028091F3
:10071000700281116CC081E080936F0284EA60C036
:1007200083E08093720210926A02CCCF80916A02B9
:10073000803208F050C080916A029091BB00E82F8F
:10074000F0E0E954FD4F90838F5F80936A02BACF47
:1007500080916A02803230F4E0916A02F0E0E9545C
:10076000FD4F10820E94C80260916A02E091B302BC
:10077000F091B40270E087EB92E0199510926A0252
:100780000E94D20236C084E08093720210926C0202
:1007900010926B02E091B502F091B602199580912A
:1007A0006B02811105C081E080936B02109293026D
:1007B00080916C02E82FF0E0ED56FD4F9081909310
:1007C000BB008F5F80936C0290916C0280916B02F2
:1007D000981708F477CF85E88093BC000AC085ECB1
:1007E0008093BC001092720204C0109269020E94B1
:1007F000C802FF91EF91BF91AF919F918F917F912F
:100800006F915F914F913F912F910F900BBE0F9081
:100810000FBE0F901F9018951F920F920FB60F9258
:1008200011242F933F938F939F93AF93BF93809106
:10083000D7029091D802A091D902B091DA023091FA
:10084000DF02232F2D5F2D3720F40196A11DB11D4E
:1008500005C0232F2A570296A11DB11D2093DF0248
:100860008093D7029093D802A093D902B093DA0272
:100870008091DB029091DC02A091DD02B091DE025A
:100880000196A11DB11D8093DB029093DC02A09321
:10089000DD02B093DE02BF91AF919F918F913F91A6
:1008A0002F910F900FBE0F901F9018950F931F93CD
:1008B0009FB7F8940091DB021091DC022091DD02D9
:1008C0003091DE0286B5A89B06C08F3F21F00F5FF6
:1008D0001F4F2F4F3F4F9FBF322F212F102F002729
:1008E000080F111D211D311D42E0000F111F221F95
:1008F000331F4A95D1F7B801C9011F910F9108958F
:10090000CF92DF92EF92FF92CF93DF936B017C0146
:100910000E945604EB010EC00E9456046C1B7D0B16
:10092000683E734038F081E0C81AD108E108F10848
:10093000C851DC4FC114D104E104F10469F7DF911F
:10094000CF91FF90EF90DF90CF900895789484B589
:10095000826084BD84B5816084BD85B5826085BDBB
:1009600085B5816085BDEEE6F0E0808181608083A1
:10097000E1E8F0E010828081826080838081816084
:100980008083E0E8F0E0808181608083E1EBF0E04B
:10099000808184608083E0EBF0E0808181608083EF
:1009A000E1E9F0E0808182608083808181608083E2
:1009B000E0E9F0E0808181608083E1EAF0E080811D
:1009C00082608083808181608083E0EAF0E08081C2
:1009D00081608083E1E2F1E08081826080838081B8
:1009E00081608083E0E2F1E0808181608083EAE7DA
:1009F000F0E0808184608083808182608083808158
:100A0000816080838081806880831092C100089516
:100A1000893009F443C088F4843029F138F48230F5
:100A200059F1E8F4813009F05EC023C0873061F1EC
:100A300088F5863009F057C023C08D3009F440C0D6
:100A400020F48B30A9F1C0F52DC0803109F442C0EB
:100A5000813109F443C08F3009F045C037C080911F
:100A600080008F7703C0809180008F7D809380000D
:100A7000089584B58F7702C084B58F7D84BD0895B5
:100A80008091B0008F7703C08091B0008F7D8093FC
:100A9000B0000895809190008F7707C080919000FA
:100AA0008F7D03C080919000877F80939000089590
:100AB0008091A0008F7707C08091A0008F7D03C038
:100AC0008091A000877F8093A000089580912001ED
:100AD0008F7707C0809120018F7D03C08091200116
:100AE000877F809320010895CF93DF9390E0FC01EE
:100AF000E65DFE4F4491FC01E059FE4F849188234E
:100B000041F190E0880F991FFC01E053FE4F2591C1
:100B10003491D9018A549E4FFC0185919491C82F3C
:100B2000D92F9FB7F8948C91611106C0409584230A
:100B30008C938881842308C0623041F4242F20954F
:100B400082238C938881842B888302C0842B8C938E
:100B50009FBFDF91CF9108950F931F93CF93DF93A2
:100B60001F92CDB7DEB7282F30E0F901EC51FF4FCF
:100B70008491F901E65DFE4F1491F901E059FE4FB1
:100B800004910023D1F0882321F069830E94080595
:100B90006981E02FF0E0EE0FFF1FEA54FE4F8591D0
:100BA0009491DC019FB7F8948C91611103C010956A
:100BB000812301C0812B8C939FBF0F90DF91CF9138
:100BC0001F910F9108950E94A6040E946F01C0E03A
:100BD000D0E00E9485012097E1F30E940000F9CF48
:0C0BE0000790F691E02D1994F894FFCFD7
:100BEC00000000001602E8018B019401A801B80175
:00000001FF
